{
  "_format": "hh-sol-artifact-1",
  "contractName": "PaymentRouter",
  "sourceName": "contracts/PaymentRouter.sol",
  "abi": [
    {
      "inputs": [
        {
          "internalType": "address",
          "name": "_allowanceVault",
          "type": "address"
        }
      ],
      "stateMutability": "nonpayable",
      "type": "constructor"
    },
    {
      "inputs": [],
      "name": "DOMAIN_SEPARATOR",
      "outputs": [
        {
          "internalType": "bytes32",
          "name": "",
          "type": "bytes32"
        }
      ],
      "stateMutability": "view",
      "type": "function"
    },
    {
      "inputs": [],
      "name": "INTENT_TYPEHASH",
      "outputs": [
        {
          "internalType": "bytes32",
          "name": "",
          "type": "bytes32"
        }
      ],
      "stateMutability": "view",
      "type": "function"
    },
    {
      "inputs": [],
      "name": "allowanceVault",
      "outputs": [
        {
          "internalType": "contract AllowanceVault",
          "name": "",
          "type": "address"
        }
      ],
      "stateMutability": "view",
      "type": "function"
    },
    {
      "inputs": [
        {
          "internalType": "address",
          "name": "user",
          "type": "address"
        },
        {
          "internalType": "address",
          "name": "token",
          "type": "address"
        },
        {
          "internalType": "address",
          "name": "to",
          "type": "address"
        },
        {
          "internalType": "uint256",
          "name": "amount",
          "type": "uint256"
        },
        {
          "internalType": "uint256",
          "name": "deadline",
          "type": "uint256"
        },
        {
          "internalType": "uint8",
          "name": "v",
          "type": "uint8"
        },
        {
          "internalType": "bytes32",
          "name": "r",
          "type": "bytes32"
        },
        {
          "internalType": "bytes32",
          "name": "s",
          "type": "bytes32"
        }
      ],
      "name": "executeIntent",
      "outputs": [],
      "stateMutability": "nonpayable",
      "type": "function"
    },
    {
      "inputs": [
        {
          "internalType": "address",
          "name": "",
          "type": "address"
        }
      ],
      "name": "nonces",
      "outputs": [
        {
          "internalType": "uint256",
          "name": "",
          "type": "uint256"
        }
      ],
      "stateMutability": "view",
      "type": "function"
    }
  ],
  "bytecode": "0x60806040523480156200001157600080fd5b5060405162000e8638038062000e868339818101604052810190620000379190620001b8565b80600160006101000a81548173ffffffffffffffffffffffffffffffffffffffff021916908373ffffffffffffffffffffffffffffffffffffffff1602179055507f8b73c3c69bb8fe3d512ecc4cf759cc79239f7b179b0ffacaa9a75d522b39400f6040518060400160405280601081526020017f4172635061796d656e74526f7574657200000000000000000000000000000000815250805190602001206040518060400160405280600181526020017f31000000000000000000000000000000000000000000000000000000000000008152508051906020012046306040516020016200012b95949392919062000231565b60405160208183030381529060405280519060200120600281905550506200028e565b600080fd5b600073ffffffffffffffffffffffffffffffffffffffff82169050919050565b6000620001808262000153565b9050919050565b620001928162000173565b81146200019e57600080fd5b50565b600081519050620001b28162000187565b92915050565b600060208284031215620001d157620001d06200014e565b5b6000620001e184828501620001a1565b91505092915050565b6000819050919050565b620001ff81620001ea565b82525050565b6000819050919050565b6200021a8162000205565b82525050565b6200022b8162000173565b82525050565b600060a082019050620002486000830188620001f4565b620002576020830187620001f4565b620002666040830186620001f4565b6200027560608301856200020f565b62000284608083018462000220565b9695505050505050565b610be8806200029e6000396000f3fe608060405234801561001057600080fd5b50600436106100575760003560e01c80633644e5151461005c5780637ecebe001461007a578063a40301cc146100aa578063b082a274146100c6578063b983d287146100e4575b600080fd5b610064610102565b6040516100719190610500565b60405180910390f35b610094600480360381019061008f919061057e565b610108565b6040516100a191906105c4565b60405180910390f35b6100c460048036038101906100bf9190610670565b610120565b005b6100ce61049d565b6040516100db9190610500565b60405180910390f35b6100ec6104c1565b6040516100f99190610785565b60405180910390f35b60025481565b60006020528060005260406000206000915090505481565b83421115610163576040517f08c379a000000000000000000000000000000000000000000000000000000000815260040161015a906107fd565b60405180910390fd5b60008060008a73ffffffffffffffffffffffffffffffffffffffff1673ffffffffffffffffffffffffffffffffffffffff16815260200190815260200160002054905060007fae031c34eb46e6399936bde9d13130a681a1e85c27a0a51243b89979543f66498a8a8a8a868b6040516020016101e5979695949392919061082c565b604051602081830303815290604052805190602001209050600060025482604051602001610214929190610913565b6040516020818303038152906040528051906020012090506000600182888888604051600081526020016040526040516102519493929190610959565b6020604051602081039080840390855afa158015610273573d6000803e3d6000fd5b5050506020604051035190508b73ffffffffffffffffffffffffffffffffffffffff168173ffffffffffffffffffffffffffffffffffffffff16146102ed576040517f08c379a00000000000000000000000000000000000000000000000000000000081526004016102e4906109ea565b60405180910390fd5b6000808d73ffffffffffffffffffffffffffffffffffffffff1673ffffffffffffffffffffffffffffffffffffffff168152602001908152602001600020600081548092919061033c90610a39565b9190505550600160009054906101000a900473ffffffffffffffffffffffffffffffffffffffff1673ffffffffffffffffffffffffffffffffffffffff1663d9e4f8118d8c8c6040518463ffffffff1660e01b81526004016103a093929190610a81565b600060405180830381600087803b1580156103ba57600080fd5b505af11580156103ce573d6000803e3d6000fd5b505050508a73ffffffffffffffffffffffffffffffffffffffff1663a9059cbb8b8b6040518363ffffffff1660e01b815260040161040d929190610ab8565b6020604051808303816000875af115801561042c573d6000803e3d6000fd5b505050506040513d601f19601f820116820180604052508101906104509190610b19565b61048f576040517f08c379a000000000000000000000000000000000000000000000000000000000815260040161048690610b92565b60405180910390fd5b505050505050505050505050565b7fae031c34eb46e6399936bde9d13130a681a1e85c27a0a51243b89979543f664981565b600160009054906101000a900473ffffffffffffffffffffffffffffffffffffffff1681565b6000819050919050565b6104fa816104e7565b82525050565b600060208201905061051560008301846104f1565b92915050565b600080fd5b600073ffffffffffffffffffffffffffffffffffffffff82169050919050565b600061054b82610520565b9050919050565b61055b81610540565b811461056657600080fd5b50565b60008135905061057881610552565b92915050565b6000602082840312156105945761059361051b565b5b60006105a284828501610569565b91505092915050565b6000819050919050565b6105be816105ab565b82525050565b60006020820190506105d960008301846105b5565b92915050565b6105e8816105ab565b81146105f357600080fd5b50565b600081359050610605816105df565b92915050565b600060ff82169050919050565b6106218161060b565b811461062c57600080fd5b50565b60008135905061063e81610618565b92915050565b61064d816104e7565b811461065857600080fd5b50565b60008135905061066a81610644565b92915050565b600080600080600080600080610100898b0312156106915761069061051b565b5b600061069f8b828c01610569565b98505060206106b08b828c01610569565b97505060406106c18b828c01610569565b96505060606106d28b828c016105f6565b95505060806106e38b828c016105f6565b94505060a06106f48b828c0161062f565b93505060c06107058b828c0161065b565b92505060e06107168b828c0161065b565b9150509295985092959890939650565b6000819050919050565b600061074b61074661074184610520565b610726565b610520565b9050919050565b600061075d82610730565b9050919050565b600061076f82610752565b9050919050565b61077f81610764565b82525050565b600060208201905061079a6000830184610776565b92915050565b600082825260208201905092915050565b7f496e74656e742065787069726564000000000000000000000000000000000000600082015250565b60006107e7600e836107a0565b91506107f2826107b1565b602082019050919050565b60006020820190508181036000830152610816816107da565b9050919050565b61082681610540565b82525050565b600060e082019050610841600083018a6104f1565b61084e602083018961081d565b61085b604083018861081d565b610868606083018761081d565b61087560808301866105b5565b61088260a08301856105b5565b61088f60c08301846105b5565b98975050505050505050565b600081905092915050565b7f1901000000000000000000000000000000000000000000000000000000000000600082015250565b60006108dc60028361089b565b91506108e7826108a6565b600282019050919050565b6000819050919050565b61090d610908826104e7565b6108f2565b82525050565b600061091e826108cf565b915061092a82856108fc565b60208201915061093a82846108fc565b6020820191508190509392505050565b6109538161060b565b82525050565b600060808201905061096e60008301876104f1565b61097b602083018661094a565b61098860408301856104f1565b61099560608301846104f1565b95945050505050565b7f496e76616c6964207369676e6174757265000000000000000000000000000000600082015250565b60006109d46011836107a0565b91506109df8261099e565b602082019050919050565b60006020820190508181036000830152610a03816109c7565b9050919050565b7f4e487b7100000000000000000000000000000000000000000000000000000000600052601160045260246000fd5b6000610a44826105ab565b91507fffffffffffffffffffffffffffffffffffffffffffffffffffffffffffffffff8203610a7657610a75610a0a565b5b600182019050919050565b6000606082019050610a96600083018661081d565b610aa3602083018561081d565b610ab060408301846105b5565b949350505050565b6000604082019050610acd600083018561081d565b610ada60208301846105b5565b9392505050565b60008115159050919050565b610af681610ae1565b8114610b0157600080fd5b50565b600081519050610b1381610aed565b92915050565b600060208284031215610b2f57610b2e61051b565b5b6000610b3d84828501610b04565b91505092915050565b7f546f6b656e207472616e73666572206661696c65640000000000000000000000600082015250565b6000610b7c6015836107a0565b9150610b8782610b46565b602082019050919050565b60006020820190508181036000830152610bab81610b6f565b905091905056fea2646970667358221220244b49e486f100fed5c74156e463df29e130f8f25bc781b7b50946a4055a497364736f6c63430008140033",
  "linkReferences": {},
  "deployedLinkReferences": {}
}