{
  "_format": "hh-sol-artifact-1",
  "contractName": "SubscriptionManager",
  "sourceName": "contracts/SubscriptionManager.sol",
  "abi": [
    {
      "inputs": [
        {
          "internalType": "address",
          "name": "routerAddress",
          "type": "address"
        }
      ],
      "stateMutability": "nonpayable",
      "type": "constructor"
    },
    {
      "anonymous": false,
      "inputs": [
        {
          "indexed": true,
          "internalType": "uint256",
          "name": "subscriptionId",
          "type": "uint256"
        },
        {
          "indexed": true,
          "internalType": "address",
          "name": "user",
          "type": "address"
        },
        {
          "indexed": true,
          "internalType": "address",
          "name": "to",
          "type": "address"
        },
        {
          "indexed": false,
          "internalType": "uint256",
          "name": "amount",
          "type": "uint256"
        },
        {
          "indexed": false,
          "internalType": "uint256",
          "name": "intervalSeconds",
          "type": "uint256"
        }
      ],
      "name": "SubscriptionCreated",
      "type": "event"
    },
    {
      "inputs": [
        {
          "internalType": "uint256",
          "name": "id",
          "type": "uint256"
        }
      ],
      "name": "cancelSubscription",
      "outputs": [],
      "stateMutability": "nonpayable",
      "type": "function"
    },
    {
      "inputs": [
        {
          "internalType": "address",
          "name": "token",
          "type": "address"
        },
        {
          "internalType": "address",
          "name": "to",
          "type": "address"
        },
        {
          "internalType": "uint256",
          "name": "amount",
          "type": "uint256"
        },
        {
          "internalType": "uint256",
          "name": "intervalSeconds",
          "type": "uint256"
        }
      ],
      "name": "createSubscription",
      "outputs": [
        {
          "internalType": "uint256",
          "name": "",
          "type": "uint256"
        }
      ],
      "stateMutability": "nonpayable",
      "type": "function"
    },
    {
      "inputs": [
        {
          "internalType": "uint256",
          "name": "id",
          "type": "uint256"
        },
        {
          "internalType": "uint256",
          "name": "deadline",
          "type": "uint256"
        },
        {
          "internalType": "uint8",
          "name": "v",
          "type": "uint8"
        },
        {
          "internalType": "bytes32",
          "name": "r",
          "type": "bytes32"
        },
        {
          "internalType": "bytes32",
          "name": "s",
          "type": "bytes32"
        }
      ],
      "name": "processSubscription",
      "outputs": [],
      "stateMutability": "nonpayable",
      "type": "function"
    },
    {
      "inputs": [],
      "name": "router",
      "outputs": [
        {
          "internalType": "contract IPaymentRouter",
          "name": "",
          "type": "address"
        }
      ],
      "stateMutability": "view",
      "type": "function"
    },
    {
      "inputs": [],
      "name": "subscriptionCount",
      "outputs": [
        {
          "internalType": "uint256",
          "name": "",
          "type": "uint256"
        }
      ],
      "stateMutability": "view",
      "type": "function"
    },
    {
      "inputs": [
        {
          "internalType": "uint256",
          "name": "",
          "type": "uint256"
        }
      ],
      "name": "subscriptions",
      "outputs": [
        {
          "internalType": "address",
          "name": "user",
          "type": "address"
        },
        {
          "internalType": "address",
          "name": "token",
          "type": "address"
        },
        {
          "internalType": "address",
          "name": "to",
          "type": "address"
        },
        {
          "internalType": "uint256",
          "name": "amount",
          "type": "uint256"
        },
        {
          "internalType": "uint256",
          "name": "interval",
          "type": "uint256"
        },
        {
          "internalType": "uint256",
          "name": "nextPaymentTime",
          "type": "uint256"
        },
        {
          "internalType": "bool",
          "name": "active",
          "type": "bool"
        }
      ],
      "stateMutability": "view",
      "type": "function"
    }
  ],
  "bytecode": "0x60a060405234801561001057600080fd5b50604051610e77380380610e77833981810160405281019061003291906100cf565b8073ffffffffffffffffffffffffffffffffffffffff1660808173ffffffffffffffffffffffffffffffffffffffff1681525050506100fc565b600080fd5b600073ffffffffffffffffffffffffffffffffffffffff82169050919050565b600061009c82610071565b9050919050565b6100ac81610091565b81146100b757600080fd5b50565b6000815190506100c9816100a3565b92915050565b6000602082840312156100e5576100e461006c565b5b60006100f3848285016100ba565b91505092915050565b608051610d5961011e6000396000818161050a01526105dc0152610d596000f3fe608060405234801561001057600080fd5b50600436106100625760003560e01c8063173b6d901461006757806321235083146100855780632d5bbf60146100a15780638de8b900146100d7578063f887ea4014610107578063fa93d61814610125575b600080fd5b61006f610141565b60405161007c9190610723565b60405180910390f35b61009f600480360381019061009a919061076f565b610147565b005b6100bb60048036038101906100b6919061076f565b61021b565b6040516100ce97969594939291906107f8565b60405180910390f35b6100f160048036038101906100ec9190610893565b6102ca565b6040516100fe9190610723565b60405180910390f35b61010f610508565b60405161011c9190610959565b60405180910390f35b61013f600480360381019061013a91906109e3565b61052c565b005b60015481565b3373ffffffffffffffffffffffffffffffffffffffff1660008083815260200190815260200160002060000160009054906101000a900473ffffffffffffffffffffffffffffffffffffffff1673ffffffffffffffffffffffffffffffffffffffff16146101ea576040517f08c379a00000000000000000000000000000000000000000000000000000000081526004016101e190610abb565b60405180910390fd5b600080600083815260200190815260200160002060060160006101000a81548160ff02191690831515021790555050565b60006020528060005260406000206000915090508060000160009054906101000a900473ffffffffffffffffffffffffffffffffffffffff16908060010160009054906101000a900473ffffffffffffffffffffffffffffffffffffffff16908060020160009054906101000a900473ffffffffffffffffffffffffffffffffffffffff16908060030154908060040154908060050154908060060160009054906101000a900460ff16905087565b6000600160008154809291906102df90610b0a565b91905055506040518060e001604052803373ffffffffffffffffffffffffffffffffffffffff1681526020018673ffffffffffffffffffffffffffffffffffffffff1681526020018573ffffffffffffffffffffffffffffffffffffffff168152602001848152602001838152602001834261035b9190610b52565b815260200160011515815250600080600154815260200190815260200160002060008201518160000160006101000a81548173ffffffffffffffffffffffffffffffffffffffff021916908373ffffffffffffffffffffffffffffffffffffffff16021790555060208201518160010160006101000a81548173ffffffffffffffffffffffffffffffffffffffff021916908373ffffffffffffffffffffffffffffffffffffffff16021790555060408201518160020160006101000a81548173ffffffffffffffffffffffffffffffffffffffff021916908373ffffffffffffffffffffffffffffffffffffffff160217905550606082015181600301556080820151816004015560a0820151816005015560c08201518160060160006101000a81548160ff0219169083151502179055509050508373ffffffffffffffffffffffffffffffffffffffff163373ffffffffffffffffffffffffffffffffffffffff166001547f11a7acdb40f12388db0682ce7cdb5ffb4d01939a9b0cf653f7c1af7c2f238ad886866040516104f3929190610b86565b60405180910390a46001549050949350505050565b7f000000000000000000000000000000000000000000000000000000000000000081565b600080600087815260200190815260200160002090508060060160009054906101000a900460ff16610593576040517f08c379a000000000000000000000000000000000000000000000000000000000815260040161058a90610bfb565b60405180910390fd5b80600501544210156105da576040517f08c379a00000000000000000000000000000000000000000000000000000000081526004016105d190610c67565b60405180910390fd5b7f000000000000000000000000000000000000000000000000000000000000000073ffffffffffffffffffffffffffffffffffffffff1663a40301cc8260000160009054906101000a900473ffffffffffffffffffffffffffffffffffffffff168360010160009054906101000a900473ffffffffffffffffffffffffffffffffffffffff168460020160009054906101000a900473ffffffffffffffffffffffffffffffffffffffff1685600301548a8a8a8a6040518963ffffffff1660e01b81526004016106b1989796959493929190610ca5565b600060405180830381600087803b1580156106cb57600080fd5b505af11580156106df573d6000803e3d6000fd5b5050505080600401548160050160008282546106fb9190610b52565b92505081905550505050505050565b6000819050919050565b61071d8161070a565b82525050565b60006020820190506107386000830184610714565b92915050565b600080fd5b61074c8161070a565b811461075757600080fd5b50565b60008135905061076981610743565b92915050565b6000602082840312156107855761078461073e565b5b60006107938482850161075a565b91505092915050565b600073ffffffffffffffffffffffffffffffffffffffff82169050919050565b60006107c78261079c565b9050919050565b6107d7816107bc565b82525050565b60008115159050919050565b6107f2816107dd565b82525050565b600060e08201905061080d600083018a6107ce565b61081a60208301896107ce565b61082760408301886107ce565b6108346060830187610714565b6108416080830186610714565b61084e60a0830185610714565b61085b60c08301846107e9565b98975050505050505050565b610870816107bc565b811461087b57600080fd5b50565b60008135905061088d81610867565b92915050565b600080600080608085870312156108ad576108ac61073e565b5b60006108bb8782880161087e565b94505060206108cc8782880161087e565b93505060406108dd8782880161075a565b92505060606108ee8782880161075a565b91505092959194509250565b6000819050919050565b600061091f61091a6109158461079c565b6108fa565b61079c565b9050919050565b600061093182610904565b9050919050565b600061094382610926565b9050919050565b61095381610938565b82525050565b600060208201905061096e600083018461094a565b92915050565b600060ff82169050919050565b61098a81610974565b811461099557600080fd5b50565b6000813590506109a781610981565b92915050565b6000819050919050565b6109c0816109ad565b81146109cb57600080fd5b50565b6000813590506109dd816109b7565b92915050565b600080600080600060a086880312156109ff576109fe61073e565b5b6000610a0d8882890161075a565b9550506020610a1e8882890161075a565b9450506040610a2f88828901610998565b9350506060610a40888289016109ce565b9250506080610a51888289016109ce565b9150509295509295909350565b600082825260208201905092915050565b7f4e6f74206f776e65720000000000000000000000000000000000000000000000600082015250565b6000610aa5600983610a5e565b9150610ab082610a6f565b602082019050919050565b60006020820190508181036000830152610ad481610a98565b9050919050565b7f4e487b7100000000000000000000000000000000000000000000000000000000600052601160045260246000fd5b6000610b158261070a565b91507fffffffffffffffffffffffffffffffffffffffffffffffffffffffffffffffff8203610b4757610b46610adb565b5b600182019050919050565b6000610b5d8261070a565b9150610b688361070a565b9250828201905080821115610b8057610b7f610adb565b5b92915050565b6000604082019050610b9b6000830185610714565b610ba86020830184610714565b9392505050565b7f496e616374697665000000000000000000000000000000000000000000000000600082015250565b6000610be5600883610a5e565b9150610bf082610baf565b602082019050919050565b60006020820190508181036000830152610c1481610bd8565b9050919050565b7f4e6f742064756500000000000000000000000000000000000000000000000000600082015250565b6000610c51600783610a5e565b9150610c5c82610c1b565b602082019050919050565b60006020820190508181036000830152610c8081610c44565b9050919050565b610c9081610974565b82525050565b610c9f816109ad565b82525050565b600061010082019050610cbb600083018b6107ce565b610cc8602083018a6107ce565b610cd560408301896107ce565b610ce26060830188610714565b610cef6080830187610714565b610cfc60a0830186610c87565b610d0960c0830185610c96565b610d1660e0830184610c96565b999850505050505050505056fea2646970667358221220cd5343e7579574e02b2cfc9ece85bdbc8e8ebf119a654daccc6b29a313263f4964736f6c63430008140033",
  "linkReferences": {},
  "deployedLinkReferences": {}
}