{
  "_format": "hh-sol-artifact-1",
  "contractName": "AllowanceVault",
  "sourceName": "contracts/AllowanceVault.sol",
  "abi": [
    {
      "inputs": [
        {
          "internalType": "address",
          "name": "_router",
          "type": "address"
        }
      ],
      "stateMutability": "nonpayable",
      "type": "constructor"
    },
    {
      "inputs": [
        {
          "internalType": "address",
          "name": "owner",
          "type": "address"
        },
        {
          "internalType": "address",
          "name": "target",
          "type": "address"
        },
        {
          "internalType": "uint256",
          "name": "amount",
          "type": "uint256"
        }
      ],
      "name": "checkAndConsume",
      "outputs": [],
      "stateMutability": "nonpayable",
      "type": "function"
    },
    {
      "inputs": [],
      "name": "router",
      "outputs": [
        {
          "internalType": "address",
          "name": "",
          "type": "address"
        }
      ],
      "stateMutability": "view",
      "type": "function"
    },
    {
      "inputs": [
        {
          "internalType": "address",
          "name": "",
          "type": "address"
        },
        {
          "internalType": "address",
          "name": "",
          "type": "address"
        }
      ],
      "name": "rules",
      "outputs": [
        {
          "internalType": "uint256",
          "name": "maxPerTx",
          "type": "uint256"
        },
        {
          "internalType": "uint256",
          "name": "maxDaily",
          "type": "uint256"
        },
        {
          "internalType": "uint256",
          "name": "maxMonthly",
          "type": "uint256"
        },
        {
          "internalType": "uint256",
          "name": "lastDay",
          "type": "uint256"
        },
        {
          "internalType": "uint256",
          "name": "spentToday",
          "type": "uint256"
        },
        {
          "internalType": "uint256",
          "name": "spentMonth",
          "type": "uint256"
        }
      ],
      "stateMutability": "view",
      "type": "function"
    },
    {
      "inputs": [
        {
          "internalType": "address",
          "name": "target",
          "type": "address"
        },
        {
          "internalType": "uint256",
          "name": "maxPerTx",
          "type": "uint256"
        },
        {
          "internalType": "uint256",
          "name": "maxDaily",
          "type": "uint256"
        },
        {
          "internalType": "uint256",
          "name": "maxMonthly",
          "type": "uint256"
        }
      ],
      "name": "setRule",
      "outputs": [],
      "stateMutability": "nonpayable",
      "type": "function"
    }
  ],
  "bytecode": "0x608060405234801561001057600080fd5b50604051610a75380380610a75833981810160405281019061003291906100db565b806000806101000a81548173ffffffffffffffffffffffffffffffffffffffff021916908373ffffffffffffffffffffffffffffffffffffffff16021790555050610108565b600080fd5b600073ffffffffffffffffffffffffffffffffffffffff82169050919050565b60006100a88261007d565b9050919050565b6100b88161009d565b81146100c357600080fd5b50565b6000815190506100d5816100af565b92915050565b6000602082840312156100f1576100f0610078565b5b60006100ff848285016100c6565b91505092915050565b61095e806101176000396000f3fe608060405234801561001057600080fd5b506004361061004c5760003560e01c80630a36f49d14610051578063d9e4f81114610086578063e25b5b8e146100a2578063f887ea40146100be575b600080fd5b61006b60048036038101906100669190610506565b6100dc565b60405161007d9695949392919061055f565b60405180910390f35b6100a0600480360381019061009b91906105ec565b610125565b005b6100bc60048036038101906100b7919061063f565b61038f565b005b6100c661047f565b6040516100d391906106b5565b60405180910390f35b6001602052816000526040600020602052806000526040600020600091509150508060000154908060010154908060020154908060030154908060040154908060050154905086565b60008054906101000a900473ffffffffffffffffffffffffffffffffffffffff1673ffffffffffffffffffffffffffffffffffffffff163373ffffffffffffffffffffffffffffffffffffffff16146101b3576040517f08c379a00000000000000000000000000000000000000000000000000000000081526004016101aa9061072d565b60405180910390fd5b6000600160008573ffffffffffffffffffffffffffffffffffffffff1673ffffffffffffffffffffffffffffffffffffffff16815260200190815260200160002060008473ffffffffffffffffffffffffffffffffffffffff1673ffffffffffffffffffffffffffffffffffffffff1681526020019081526020016000209050806000015482111561027a576040517f08c379a000000000000000000000000000000000000000000000000000000000815260040161027190610799565b60405180910390fd5b6201518081600301544261028e91906107e8565b106102a757428160030181905550600081600401819055505b80600101548282600401546102bc919061081c565b11156102fd576040517f08c379a00000000000000000000000000000000000000000000000000000000081526004016102f49061089c565b60405180910390fd5b8060020154828260050154610312919061081c565b1115610353576040517f08c379a000000000000000000000000000000000000000000000000000000000815260040161034a90610908565b60405180910390fd5b81816004016000828254610367919061081c565b9250508190555081816005016000828254610382919061081c565b9250508190555050505050565b6040518060c00160405280848152602001838152602001828152602001428152602001600081526020016000815250600160003373ffffffffffffffffffffffffffffffffffffffff1673ffffffffffffffffffffffffffffffffffffffff16815260200190815260200160002060008673ffffffffffffffffffffffffffffffffffffffff1673ffffffffffffffffffffffffffffffffffffffff168152602001908152602001600020600082015181600001556020820151816001015560408201518160020155606082015181600301556080820151816004015560a0820151816005015590505050505050565b60008054906101000a900473ffffffffffffffffffffffffffffffffffffffff1681565b600080fd5b600073ffffffffffffffffffffffffffffffffffffffff82169050919050565b60006104d3826104a8565b9050919050565b6104e3816104c8565b81146104ee57600080fd5b50565b600081359050610500816104da565b92915050565b6000806040838503121561051d5761051c6104a3565b5b600061052b858286016104f1565b925050602061053c858286016104f1565b9150509250929050565b6000819050919050565b61055981610546565b82525050565b600060c0820190506105746000830189610550565b6105816020830188610550565b61058e6040830187610550565b61059b6060830186610550565b6105a86080830185610550565b6105b560a0830184610550565b979650505050505050565b6105c981610546565b81146105d457600080fd5b50565b6000813590506105e6816105c0565b92915050565b600080600060608486031215610605576106046104a3565b5b6000610613868287016104f1565b9350506020610624868287016104f1565b9250506040610635868287016105d7565b9150509250925092565b60008060008060808587031215610659576106586104a3565b5b6000610667878288016104f1565b9450506020610678878288016105d7565b9350506040610689878288016105d7565b925050606061069a878288016105d7565b91505092959194509250565b6106af816104c8565b82525050565b60006020820190506106ca60008301846106a6565b92915050565b600082825260208201905092915050565b7f4f6e6c7920726f75746572000000000000000000000000000000000000000000600082015250565b6000610717600b836106d0565b9150610722826106e1565b602082019050919050565b600060208201905081810360008301526107468161070a565b9050919050565b7f4f766572207065722d7478206c696d6974000000000000000000000000000000600082015250565b60006107836011836106d0565b915061078e8261074d565b602082019050919050565b600060208201905081810360008301526107b281610776565b9050919050565b7f4e487b7100000000000000000000000000000000000000000000000000000000600052601160045260246000fd5b60006107f382610546565b91506107fe83610546565b9250828203905081811115610816576108156107b9565b5b92915050565b600061082782610546565b915061083283610546565b925082820190508082111561084a576108496107b9565b5b92915050565b7f4f766572206461696c79206c696d697400000000000000000000000000000000600082015250565b60006108866010836106d0565b915061089182610850565b602082019050919050565b600060208201905081810360008301526108b581610879565b9050919050565b7f4f766572206d6f6e74686c79206c696d69740000000000000000000000000000600082015250565b60006108f26012836106d0565b91506108fd826108bc565b602082019050919050565b60006020820190508181036000830152610921816108e5565b905091905056fea26469706673582212205f2c6df8e304cb1fff78359e23778b6efdc098cdc105c769388939816928a38a64736f6c63430008140033",
  "linkReferences": {},
  "deployedLinkReferences": {}
}